:100000002CC046C045C054C043C042C041C040C0DF
:100010003FC03EC03DC03CC03BC03AC039C071C0CB
:1000200079C07DC081C08BC08FC093C09EC09DC071
:100030009CC014C117C11FC127C12FC137C13FC107
:1000400047C14CC10BC16EC171C179C181C189C1A8
:1000500091C199C1A1C1A6C165C111241FBECFE53F
:10006000D2E0DEBFCDBF10E0A0E6B0E0ECEBF3E005
:1000700002C005900D92A236B107D9F720E0A2E6A2
:10008000B0E001C01D92A736B207E1F7D2D094C10B
:10009000B7CF2FB7F894E199FECF1CBA90E09FBB81
:1000A0008EBB6DBBE29AE19AE199FECF2FBF089516
:1000B0001F920F920FB60F9211242F933F934F93DD
:1000C0005F936F937F938F939F93AF93BF93CF93E0
:1000D000EF93FF9380916600883008F452C08091BE
:1000E000620081114EC081E080936200E091610066
:1000F0008E2F90E08A309105C0F5FC01E15FFF4F43
:100100000994C1E0C093610061E080E0C2DFC09368
:10011000650028C0C2E0C093610062E01EC0C3E079
:10012000C093610063E019C01092610060E080E05C
:10013000B0DF1092640081E08093650020C0C5E0CC
:10014000C093610065E009C0C6E0C093610066E04D
:1001500004C0C7E0C093610067E080E09ADF81E0FF
:1001600080936500C09364000AC01092610060E053
:1001700080E08FDF81E08093650010926400109230
:10018000660080916500882369F080916500815048
:100190008093650080916300886080936300109273
:1001A000660011C080916400882341F081E0809353
:1001B00065008091640081508093640080916300A9
:1001C000877F8093630080916000811104C08FEF6E
:1001D0008093600005C0809166008F5F8093660009
:1001E0008091630088BBFF91EF91CF91BF91AF9158
:1001F0009F918F917F916F915F914F913F912F913F
:100200000F900FBE0F901F901895E199FECF90E0D0
:100210009FBB8EBBE09A8DB3089580B7806880BF86
:1002200080B78E6080BF8DE38DBD89B7806489BF44
:1002300008958BE387BB18BA1092630080E0E5DF76
:1002400080936100E09161008E2F90E08A309105EB
:1002500008F044C0FC01E75EFF4F09948091630001
:100260008C7E39C0809163008C7F80936300809185
:100270006300806130C0809163008D7E8093630055
:1002800080916300816027C0809163008D7F80939F
:1002900063008091630081611EC0809163008E7E47
:1002A0008093630080916300826015C08091630039
:1002B0008E7F809363008091630082610CC0809187
:1002C00063008F7E8093630080916300836003C02E
:1002D000809163008361809363000AC01092610083
:1002E00060E080E0D6DE81E08093650010926400DB
:1002F0008091630088BB91DF7894C1E0B29906C019
:10030000109260001092620010926600E09161000D
:100310008E2F90E08A30910508F044C0FC01ED5D1D
:10032000FF4F0994809163008C7E39C080916300F7
:100330008C7F8093630080916300806130C08091E6
:1003400063008D7E8093630080916300816027C08D
:10035000809163008D7F8093630080916300816151
:100360001EC0809163008E7E809363008091630045
:10037000826015C0809163008E7F809363008091BE
:10038000630082610CC0809163008F7E8093630064
:1003900080916300836003C08091630083618093D8
:1003A0006300ACCF1092610060E080E072DEC09329
:0C03B000650010926400A2CFF894FFCF0B
:0203BC00FF0937
:00000001FF
