:100000002CC046C045C054C043C042C041C040C0DF
:100010003FC03EC03DC03CC03BC03AC039C074C0C8
:100020007CC080C084C08EC092C096C0A1C0A0C059
:100030009FC006C109C111C119C121C129C131C166
:1000400039C13EC1FDC058C15BC163C16BC173C141
:100050007BC183C18BC190C14FC111241FBECFE5AD
:10006000D2E0DEBFCDBF10E0A0E6B0E0E0E9F3E013
:1000700002C005900D92A236B107D9F720E0A2E6A2
:10008000B0E001C01D92A636B207E1F7C4D07EC130
:10009000B7CF2FB7F894E199FECF1CBA90E09FBB81
:1000A0008EBB6DBBE29AE19AE199FECF2FBF089516
:1000B0001F920F920FB60F9211242F933F934F93DD
:1000C0005F936F937F938F939F93AF93BF93CF93E0
:1000D000EF93FF93B29906C0809165008F5F809384
:1000E000650002C01092650080916500883008F4B8
:1000F0004BC0E09160008E2F90E08A309105C0F5F2
:10010000FC01E15FFF4F0994C1E0C093600061E032
:1001100080E0BFDFC093640028C0C2E0C0936000ED
:1001200062E01EC0C3E0C093600063E019C010929B
:10013000600060E080E0ADDF1092630081E08093BA
:10014000640020C0C5E0C093600065E009C0C6E05F
:10015000C093600066E004C0C7E0C093600067E041
:1001600080E097DF81E080936400C09363000AC061
:100170001092600060E080E08CDF81E0809364009A
:10018000109263001092650080916400882349F00A
:100190008091640081508093640080916200886047
:1001A0000FC080916300882341F081E08093640058
:1001B0008091630081508093630080916200877F0B
:1001C000809362008091620088BBFF91EF91CF9194
:1001D000BF91AF919F918F917F916F915F914F915F
:1001E0003F912F910F900FBE0F901F901895E1999E
:1001F000FECF90E09FBB8EBBE09A8DB3089580B791
:10020000806880BF80B78E6080BF8DE38DBD89B769
:10021000806489BF08958BE387BB18BA109262008F
:1002200080E0E5DF80936000E09160008E2F90E039
:100230008A30910508F044C0FC01E75EFF4F099445
:10024000809162008D7C39C0809162008D7D8093A9
:10025000620080916200806130C0809162008D7E7A
:100260008093620080916200806227C0809162006A
:100270008D7F809362008091620080631EC08091B8
:1002800062008F7C8093620080916200826015C062
:10029000809162008F7D8093620080916200826114
:1002A0000CC0809162008F7E80936200809162001A
:1002B000826203C0809162008263809362000AC000
:1002C0001092600060E080E0E4DE81E080936400F2
:1002D000109263008091620088BB91DF7894C1E046
:1002E000E09160008E2F90E08A30910508F044C0C4
:1002F000FC01ED5DFF4F0994809162008D7C39C057
:10030000809162008D7D80936200809162008061A7
:1003100030C0809162008D7E809362008091620087
:10032000806227C0809162008D7F809362008091FF
:10033000620080631EC0809162008F7C80936200A7
:1003400080916200826015C0809162008F7D8093F1
:1003500062008091620082610CC0809162008F7E99
:100360008093620080916200826203C0809162008B
:10037000826380936200B4CF1092600060E080E0FE
:1003800088DEC093640010926300AACFF894FFCF78
:02039000090062
:00000001FF
