:1000000022C03CC03BC04AC039C038C037C036C02F
:1000100035C034C033C032C031C030C02FC00DC174
:1000200010C118C120C128C130C138C140C145C16B
:1000300004C167C16AC172C17AC182C18AC192C159
:100040009AC19FC15EC111241FBECFE5D2E0DEBFC1
:10005000CDBF10E0A0E6B0E0EAE9F3E002C0059011
:100060000D92A236B107D9F720E0A2E6B0E001C0B8
:100070001D92A736B207E1F7CBD08DC1C1CF2FB704
:10008000F894E199FECF1CBA90E09FBB8EBB6DBB8C
:10009000E29AE19AE199FECF2FBF08951F920F9245
:1000A0000FB60F9211242F933F934F935F936F934B
:1000B0007F938F939F93AF93BF93CF93DF93EF93F0
:1000C000FF9380916600883008F449C080916200F7
:1000D000811145C0C1E0C0936200D0916100D2306F
:1000E000F9F078F4DD2391F0D13069F5C2E0C093E6
:1000F000610062E080E0C3DFC0936400D0936500DC
:100100002CC0D330C1F0D930B1F01DC0C093610014
:1001100061E080E0B4DFC0936500C09364001DC05F
:10012000D3E0D093610063E080E0A9DFC093650075
:10013000D093640012C01092610060E080E09FDF05
:10014000C093650008C01092610060E080E097DF16
:1001500081E08093650010926400109266008091A7
:100160006500882369F08091650081508093650067
:10017000809163008860809363001092660011C0D4
:1001800080916400882341F081E080936500809134
:10019000640081508093640080916300877F809326
:1001A000630080916000811104C08FEF8093600034
:1001B00005C0809166008F5F809366008091630028
:1001C00088BBFF91EF91DF91CF91BF91AF919F914C
:1001D0008F917F916F915F914F913F912F910F90F0
:1001E0000FBE0F901F901895E199FECF90E09FBB36
:1001F0008EBBE09A8DB3089580B7806880BF80B7CA
:100200008E6080BF8DE38DBD89B7806489BF0895FE
:100210008BE387BB18BA1092630080E0E5DF809320
:100220006100E09161008E2F90E08A30910508F026
:1002300044C0FC01E15FFF4F0994809163008C7E14
:1002400039C0809163008C7F80936300809163004C
:10025000806130C0809163008D7E809363008091C7
:100260006300816027C0809163008D7F809363006D
:100270008091630081611EC0809163008E7E8093B7
:10028000630080916300826015C0809163008E7F5F
:10029000809363008091630082610CC08091630051
:1002A0008F7E8093630080916300836003C08091A0
:1002B00063008361809363000AC01092610060E074
:1002C00080E0DDDE81E08093650010926400809123
:1002D000630088BB91DF7894C1E0B29B06C01092A6
:1002E00060001092620010926600E09161008E2F13
:1002F00090E08A30910508F044C0FC01E75EFF4FB2
:100300000994809163008C7E39C0809163008C7F5A
:100310008093630080916300806130C080916300AE
:100320008D7E8093630080916300816027C08091FF
:1003300063008D7F809363008091630081611EC0A4
:10034000809163008E7E8093630080916300826061
:1003500015C0809163008E7F80936300809163005D
:1003600082610CC0809163008F7E809363008091D6
:100370006300836003C080916300836180936300A6
:10038000ACCF1092610060E080E079DEC093650040
:0A03900010926400A2CFF894FFCF92
:02039A00FF0959
:00000001FF
